{
  "_format": "hh-sol-artifact-1",
  "contractName": "AgilelyEIR",
  "sourceName": "src/main/AgilelyEIR.sol",
  "abi": [
    {
      "inputs": [],
      "name": "CannotBeZero",
      "type": "error"
    },
    {
      "inputs": [],
      "name": "NoDebtFound",
      "type": "error"
    },
    {
      "inputs": [],
      "name": "NotInterestManager",
      "type": "error"
    },
    {
      "inputs": [
        {
          "internalType": "uint256",
          "name": "x",
          "type": "uint256"
        },
        {
          "internalType": "uint256",
          "name": "y",
          "type": "uint256"
        }
      ],
      "name": "PRBMath_MulDiv18_Overflow",
      "type": "error"
    },
    {
      "inputs": [
        {
          "internalType": "SD59x18",
          "name": "x",
          "type": "int256"
        }
      ],
      "name": "PRBMath_SD59x18_Exp2_InputTooBig",
      "type": "error"
    },
    {
      "inputs": [
        {
          "internalType": "SD59x18",
          "name": "x",
          "type": "int256"
        }
      ],
      "name": "PRBMath_SD59x18_Exp_InputTooBig",
      "type": "error"
    },
    {
      "inputs": [
        {
          "internalType": "SD59x18",
          "name": "x",
          "type": "int256"
        }
      ],
      "name": "PRBMath_SD59x18_IntoUint256_Underflow",
      "type": "error"
    },
    {
      "inputs": [
        {
          "internalType": "UD60x18",
          "name": "x",
          "type": "uint256"
        }
      ],
      "name": "PRBMath_UD60x18_Exp2_InputTooBig",
      "type": "error"
    },
    {
      "inputs": [
        {
          "internalType": "UD60x18",
          "name": "x",
          "type": "uint256"
        }
      ],
      "name": "PRBMath_UD60x18_Log_InputTooSmall",
      "type": "error"
    },
    {
      "anonymous": false,
      "inputs": [
        {
          "indexed": false,
          "internalType": "address",
          "name": "user",
          "type": "address"
        },
        {
          "indexed": false,
          "internalType": "uint256",
          "name": "debt",
          "type": "uint256"
        }
      ],
      "name": "DebtChanged",
      "type": "event"
    },
    {
      "anonymous": false,
      "inputs": [
        {
          "indexed": false,
          "internalType": "uint256",
          "name": "newEIR",
          "type": "uint256"
        }
      ],
      "name": "EIRChanged",
      "type": "event"
    },
    {
      "anonymous": false,
      "inputs": [
        {
          "indexed": false,
          "internalType": "uint256",
          "name": "val",
          "type": "uint256"
        }
      ],
      "name": "Exit",
      "type": "event"
    },
    {
      "anonymous": false,
      "inputs": [],
      "name": "Flee",
      "type": "event"
    },
    {
      "anonymous": false,
      "inputs": [
        {
          "indexed": false,
          "internalType": "uint8",
          "name": "version",
          "type": "uint8"
        }
      ],
      "name": "Initialized",
      "type": "event"
    },
    {
      "anonymous": false,
      "inputs": [
        {
          "indexed": false,
          "internalType": "uint256",
          "name": "interest",
          "type": "uint256"
        }
      ],
      "name": "InterestMinted",
      "type": "event"
    },
    {
      "anonymous": false,
      "inputs": [
        {
          "indexed": false,
          "internalType": "uint256",
          "name": "val",
          "type": "uint256"
        }
      ],
      "name": "Join",
      "type": "event"
    },
    {
      "anonymous": false,
      "inputs": [
        {
          "indexed": true,
          "internalType": "address",
          "name": "previousOwner",
          "type": "address"
        },
        {
          "indexed": true,
          "internalType": "address",
          "name": "newOwner",
          "type": "address"
        }
      ],
      "name": "OwnershipTransferred",
      "type": "event"
    },
    {
      "anonymous": false,
      "inputs": [
        {
          "indexed": false,
          "internalType": "uint8",
          "name": "risk",
          "type": "uint8"
        }
      ],
      "name": "RiskChanged",
      "type": "event"
    },
    {
      "anonymous": false,
      "inputs": [
        {
          "indexed": false,
          "internalType": "uint256",
          "name": "debt",
          "type": "uint256"
        }
      ],
      "name": "SystemDebtChanged",
      "type": "event"
    },
    {
      "anonymous": false,
      "inputs": [
        {
          "indexed": true,
          "internalType": "address",
          "name": "src",
          "type": "address"
        },
        {
          "indexed": true,
          "internalType": "address",
          "name": "dst",
          "type": "address"
        },
        {
          "indexed": false,
          "internalType": "uint256",
          "name": "wad",
          "type": "uint256"
        }
      ],
      "name": "Tack",
      "type": "event"
    },
    {
      "inputs": [],
      "name": "COMPOUND",
      "outputs": [
        {
          "internalType": "uint256",
          "name": "",
          "type": "uint256"
        }
      ],
      "stateMutability": "view",
      "type": "function"
    },
    {
      "inputs": [],
      "name": "PRECISION",
      "outputs": [
        {
          "internalType": "uint256",
          "name": "",
          "type": "uint256"
        }
      ],
      "stateMutability": "view",
      "type": "function"
    },
    {
      "inputs": [],
      "name": "YEAR_MINUTE",
      "outputs": [
        {
          "internalType": "uint256",
          "name": "",
          "type": "uint256"
        }
      ],
      "stateMutability": "view",
      "type": "function"
    },
    {
      "inputs": [
        {
          "internalType": "uint8",
          "name": "_risk",
          "type": "uint8"
        },
        {
          "internalType": "uint256",
          "name": "_price",
          "type": "uint256"
        }
      ],
      "name": "calculateEIR",
      "outputs": [
        {
          "internalType": "uint256",
          "name": "",
          "type": "uint256"
        }
      ],
      "stateMutability": "pure",
      "type": "function"
    },
    {
      "inputs": [
        {
          "internalType": "uint256",
          "name": "_eir",
          "type": "uint256"
        },
        {
          "internalType": "uint256",
          "name": "_debt",
          "type": "uint256"
        },
        {
          "internalType": "uint256",
          "name": "_timeInYear",
          "type": "uint256"
        }
      ],
      "name": "compound",
      "outputs": [
        {
          "internalType": "uint256",
          "name": "",
          "type": "uint256"
        }
      ],
      "stateMutability": "pure",
      "type": "function"
    },
    {
      "inputs": [
        {
          "internalType": "address",
          "name": "",
          "type": "address"
        }
      ],
      "name": "crops",
      "outputs": [
        {
          "internalType": "uint256",
          "name": "",
          "type": "uint256"
        }
      ],
      "stateMutability": "view",
      "type": "function"
    },
    {
      "inputs": [],
      "name": "currentEIR",
      "outputs": [
        {
          "internalType": "uint256",
          "name": "",
          "type": "uint256"
        }
      ],
      "stateMutability": "view",
      "type": "function"
    },
    {
      "inputs": [
        {
          "internalType": "address",
          "name": "_vault",
          "type": "address"
        },
        {
          "internalType": "uint256",
          "name": "_debt",
          "type": "uint256"
        }
      ],
      "name": "decreaseDebt",
      "outputs": [
        {
          "internalType": "uint256",
          "name": "addedInterest_",
          "type": "uint256"
        }
      ],
      "stateMutability": "nonpayable",
      "type": "function"
    },
    {
      "inputs": [
        {
          "internalType": "address",
          "name": "_vault",
          "type": "address"
        }
      ],
      "name": "exit",
      "outputs": [
        {
          "internalType": "uint256",
          "name": "addedInterest_",
          "type": "uint256"
        }
      ],
      "stateMutability": "nonpayable",
      "type": "function"
    },
    {
      "inputs": [
        {
          "internalType": "address",
          "name": "_vault",
          "type": "address"
        }
      ],
      "name": "getDebtOf",
      "outputs": [
        {
          "internalType": "uint256",
          "name": "",
          "type": "uint256"
        }
      ],
      "stateMutability": "view",
      "type": "function"
    },
    {
      "inputs": [
        {
          "internalType": "address",
          "name": "user",
          "type": "address"
        }
      ],
      "name": "getNotEmittedInterestRate",
      "outputs": [
        {
          "internalType": "uint256",
          "name": "",
          "type": "uint256"
        }
      ],
      "stateMutability": "view",
      "type": "function"
    },
    {
      "inputs": [
        {
          "internalType": "address",
          "name": "_vault",
          "type": "address"
        },
        {
          "internalType": "uint256",
          "name": "_debt",
          "type": "uint256"
        }
      ],
      "name": "increaseDebt",
      "outputs": [
        {
          "internalType": "uint256",
          "name": "addedInterest_",
          "type": "uint256"
        }
      ],
      "stateMutability": "nonpayable",
      "type": "function"
    },
    {
      "inputs": [],
      "name": "interestManager",
      "outputs": [
        {
          "internalType": "address",
          "name": "",
          "type": "address"
        }
      ],
      "stateMutability": "view",
      "type": "function"
    },
    {
      "inputs": [],
      "name": "interestMinted",
      "outputs": [
        {
          "internalType": "uint256",
          "name": "",
          "type": "uint256"
        }
      ],
      "stateMutability": "view",
      "type": "function"
    },
    {
      "inputs": [],
      "name": "lastUpdate",
      "outputs": [
        {
          "internalType": "uint256",
          "name": "",
          "type": "uint256"
        }
      ],
      "stateMutability": "view",
      "type": "function"
    },
    {
      "inputs": [],
      "name": "name",
      "outputs": [
        {
          "internalType": "string",
          "name": "",
          "type": "string"
        }
      ],
      "stateMutability": "view",
      "type": "function"
    },
    {
      "inputs": [],
      "name": "netAssetsPerShareWAD",
      "outputs": [
        {
          "internalType": "uint256",
          "name": "",
          "type": "uint256"
        }
      ],
      "stateMutability": "view",
      "type": "function"
    },
    {
      "inputs": [],
      "name": "owner",
      "outputs": [
        {
          "internalType": "address",
          "name": "",
          "type": "address"
        }
      ],
      "stateMutability": "view",
      "type": "function"
    },
    {
      "inputs": [],
      "name": "renounceOwnership",
      "outputs": [],
      "stateMutability": "nonpayable",
      "type": "function"
    },
    {
      "inputs": [],
      "name": "risk",
      "outputs": [
        {
          "internalType": "uint8",
          "name": "",
          "type": "uint8"
        }
      ],
      "stateMutability": "view",
      "type": "function"
    },
    {
      "inputs": [
        {
          "internalType": "uint8",
          "name": "_newRisk",
          "type": "uint8"
        }
      ],
      "name": "setRisk",
      "outputs": [],
      "stateMutability": "nonpayable",
      "type": "function"
    },
    {
      "inputs": [
        {
          "internalType": "address",
          "name": "_interestManager",
          "type": "address"
        },
        {
          "internalType": "string",
          "name": "_moduleName",
          "type": "string"
        },
        {
          "internalType": "uint8",
          "name": "_defaultRisk",
          "type": "uint8"
        }
      ],
      "name": "setUp",
      "outputs": [],
      "stateMutability": "nonpayable",
      "type": "function"
    },
    {
      "inputs": [],
      "name": "share",
      "outputs": [
        {
          "internalType": "uint256",
          "name": "",
          "type": "uint256"
        }
      ],
      "stateMutability": "view",
      "type": "function"
    },
    {
      "inputs": [
        {
          "internalType": "address",
          "name": "owner",
          "type": "address"
        }
      ],
      "name": "shareOf",
      "outputs": [
        {
          "internalType": "uint256",
          "name": "",
          "type": "uint256"
        }
      ],
      "stateMutability": "view",
      "type": "function"
    },
    {
      "inputs": [],
      "name": "stock",
      "outputs": [
        {
          "internalType": "uint256",
          "name": "",
          "type": "uint256"
        }
      ],
      "stateMutability": "view",
      "type": "function"
    },
    {
      "inputs": [
        {
          "internalType": "uint256",
          "name": "_amount",
          "type": "uint256"
        }
      ],
      "name": "syncWithProtocol",
      "outputs": [],
      "stateMutability": "nonpayable",
      "type": "function"
    },
    {
      "inputs": [],
      "name": "totalDebt",
      "outputs": [
        {
          "internalType": "uint256",
          "name": "",
          "type": "uint256"
        }
      ],
      "stateMutability": "view",
      "type": "function"
    },
    {
      "inputs": [],
      "name": "totalWeight",
      "outputs": [
        {
          "internalType": "uint256",
          "name": "",
          "type": "uint256"
        }
      ],
      "stateMutability": "view",
      "type": "function"
    },
    {
      "inputs": [
        {
          "internalType": "address",
          "name": "newOwner",
          "type": "address"
        }
      ],
      "name": "transferOwnership",
      "outputs": [],
      "stateMutability": "nonpayable",
      "type": "function"
    },
    {
      "inputs": [
        {
          "internalType": "uint256",
          "name": "_usdaPrice",
          "type": "uint256"
        }
      ],
      "name": "updateEIR",
      "outputs": [
        {
          "internalType": "uint256",
          "name": "mintedInterest_",
          "type": "uint256"
        }
      ],
      "stateMutability": "nonpayable",
      "type": "function"
    },
    {
      "inputs": [
        {
          "internalType": "address",
          "name": "",
          "type": "address"
        }
      ],
      "name": "userShares",
      "outputs": [
        {
          "internalType": "uint256",
          "name": "",
          "type": "uint256"
        }
      ],
      "stateMutability": "view",
      "type": "function"
    }
  ],
  "bytecode": "0x60808060405234610016576123dd908161001c8239f35b600080fdfe608060408181526004918236101561001657600080fd5b600092833560e01c918263023b98ca14610af75750816306fdde03146109e457816307a1e7ae146109c557816321e5e2c4146103dc5781632baeda481461098d5781632ebcda28146109585781632fb9ba311461083d57816340025111146107f3578163426a0c88146107d1578163715018a6146107745781637c44dd04146107565781638b7c2f92146107395781638da5cb5b1461071057816396c82e57146106f1578163a5537620146106b9578163a8d5fd651461069a578163aaf5eb6814610677578163b42652e91461059f578163b51533ce14610576578163b98a9ef614610553578163ba5cf3b414610478578163bdf3c4ae14610459578163c04637111461043a578163de364b0714610414578163de69b3aa146103dc578163ee065e11146103af578163f2fde38b1461031d578163f3c85eba146102eb578163f547beb5146102cc578163f8585db31461019b575063fc7b9c181461017a57600080fd5b34610197578160031936011261019757602090609f549051908152f35b5080fd5b919050346102c857806003193601126102c8576101b6610ec2565b9260243560018060a01b03938460a05460081c1633036102ba57506020947f206b7154b31a11c2b2e6152606cd086dfceae80d3b4e43cefa0f0b39ea0e1c637f54b47acc73b0f2121474f0c9237b0f5a57882108724b01b9868b3045ce63403e93610264889461025c88670de0b6b3a76400009461023388611135565b9b8816815260a189522093610249838654611000565b80955560685480610292575b508661219d565b609f54611000565b609f81905586516001600160a01b03949094168452602084019190915291604090a18351908152a151908152f35b6102b491506102ab906102a58d86611000565b90611023565b609f5490611036565b38610255565b835163e1a54d8560e01b8152fd5b8280fd5b505034610197578160031936011261019757602090606b549051908152f35b82843461031a57606036600319011261031a57506103136020926044359060243590356111fd565b9051908152f35b80fd5b9050346102c85760203660031901126102c857610338610ec2565b91610341610f5f565b6001600160a01b0383161561035d578361035a84610fb7565b80f35b906020608492519162461bcd60e51b8352820152602660248201527f4f776e61626c653a206e6577206f776e657220697320746865207a65726f206160448201526564647265737360d01b6064820152fd5b50503461019757816003193601126101975760a054905160089190911c6001600160a01b03168152602090f35b5050346101975760203660031901126101975760209181906001600160a01b03610404610ec2565b168152606a845220549051908152f35b50503461019757602036600319011261019757602090610313610435610ec2565b611c1c565b505034610197578160031936011261019757602090609e549051908152f35b5050346101975781600319360112610197576020906067549051908152f35b919050346102c8576020908160031936011261054f5760ff610498610f15565b6104a0610f5f565b1690828260ff1960a05416178060a05582519586809263bafa140560e01b825260018060a01b039060081c165afa938415610545578594610510575b506105077f018e90a59e921a225d25ed052750b34d7c5e327fb2e32f0ca4d127ae4e9264e494611063565b5051908152a180f35b93508284813d831161053e575b6105278183610edd565b8101031261053a579251926105076104dc565b8480fd5b503d61051d565b81513d87823e3d90fd5b8380fd5b505034610197578160031936011261019757602090516725b94542080c80008152f35b505034610197578060031936011261019757602090610313610596610f15565b60243590611dc5565b919050346102c85760203660031901126102c8576105bb610ec2565b60a0549093906001600160a01b039060081c8116330361066857841680825260a16020528282205493841561065a575084610630916106056105fe602098611135565b8097611000565b609f549080821161064957505083609f555b835260a186528284812055606a865283832054906122ae565b60685415610640575b5051908152f35b609f5538610639565b61065291611056565b609f55610617565b8351633c74e66760e01b8152fd5b50505163e1a54d8560e01b8152fd5b50503461019757816003193601126101975760209051670de0b6b3a76400008152f35b5050346101975781600319360112610197576020906066549051908152f35b5050346101975760203660031901126101975760209181906001600160a01b036106e1610ec2565b16815260a1845220549051908152f35b5050346101975781600319360112610197576020906068549051908152f35b50503461019757816003193601126101975760335490516001600160a01b039091168152602090f35b50503461019757816003193601126101975760209061031361215e565b50503461019757816003193601126101975760209051621d02e58152f35b833461031a578060031936011261031a5761078d610f5f565b603380546001600160a01b0319811690915581906001600160a01b03167f8be0079c531659141344cd1fd0a4f28419497f9722a3daafe3b4186f6b6457e08280a380f35b50503461019757816003193601126101975760209060ff60a054169051908152f35b919050346102c85760203660031901126102c85760a05460081c6001600160a01b031633036108305750606b5461082a9135611000565b609f5580f35b5163e1a54d8560e01b8152fd5b919050346102c857806003193601126102c857610858610ec2565b9260243560018060a01b03938460a05460081c1633036102ba57811561094a5750847f206b7154b31a11c2b2e6152606cd086dfceae80d3b4e43cefa0f0b39ea0e1c637f54b47acc73b0f2121474f0c9237b0f5a57882108724b01b9868b3045ce63403e936102646020989461091e6108d18b97611135565b99849087169081865260a189528a808720966108ee868954611056565b8098558760685480151580610941575b610926575b505061091892938152606a8b522054886122ae565b8661219d565b609f54611056565b6109189450610938916102ab91611023565b92508738610903565b508115156108fe565b8351631e1d0ab560e01b8152fd5b82843461031a57602036600319011261031a575060a05460081c6001600160a01b031633036108305761031360209235611063565b5050346101975760203660031901126101975760209181906001600160a01b036109b5610ec2565b1681526069845220549051908152f35b505034610197578160031936011261019757602090609d549051908152f35b50503461019757816003193601126101975780516065548184610a0683610f25565b80835292600190818116908115610ad55750600114610a78575b50610a3092509492940384610edd565b815192839160208084528251928382860152825b848110610a6257505050828201840152601f01601f19168101030190f35b8181018301518882018801528795508201610a44565b606587528691507f8ff97419363ffd7000167f130ef7168fbea05faf9251824ca5043f113cc6a7c75b848310610aba5750610a30935050810160200138610a20565b81935090816020925483858901015201910190918492610aa1565b905060209250610a3094915060ff191682840152151560051b82010138610a20565b9091503461054f57606036600319011261054f57610b13610ec2565b9160249081359367ffffffffffffffff808611610ebe5736602387011215610ebe578583013590808211610eac5788602097601f1993610b5a8a86601f840116018a610edd565b808952368882840101116102c85780888b9301838b0137880101526044359160ff8316809303610ea85789549660ff8860081c161596878098610e9b575b8015610e84575b15610e2c57600160ff198a1681178d559888610e1b575b50610bd960ff8d5460081c16610bcb816120fe565b610bd4816120fe565b6120fe565b610be233610fb7565b8151938411610e0a5750908894939291610bfd606554610f25565b601f8111610d93575b508591601f8411600114610d1657508b919083610d0b575b5050600019600383901b1c191690871b176065555b60a080546001600160a81b031916600884901b610100600160a81b03161791909117905542609e55865163bafa140560e01b815292839182906001600160a01b03165afa8015610d01578690610cce575b610c8e9150611063565b50610c97578380f35b7f7f26b83ff96e1f2b6a682f133852f6798a09c465da95921460cefb38474024989261ff0019855416855551908152a13880808380f35b508381813d8311610cfa575b610ce48183610edd565b81010312610cf657610c8e9051610c84565b8580fd5b503d610cda565b85513d88823e3d90fd5b015190503880610c1e565b918c9184938b9516606584527f8ff97419363ffd7000167f130ef7168fbea05faf9251824ca5043f113cc6a7c7935b818110610d7b57508411610d62575b505050811b01606555610c33565b015160001960f88460031b161c19169055388080610d54565b8383015185558d998d97909501949384019301610d45565b9091929394955060658c527f8ff97419363ffd7000167f130ef7168fbea05faf9251824ca5043f113cc6a7c7601f850160051c8101918b8610610e00575b8b97969594939291601f8c920160051c01915b828110610df2575050610c06565b8e81558c98508b9101610de4565b9091508190610dd1565b634e487b7160e01b8c52604187528bfd5b61ffff1916610101178c5538610bb6565b86602e6084928c8e519362461bcd60e51b85528401528201527f496e697469616c697a61626c653a20636f6e747261637420697320616c72656160448201526d191e481a5b9a5d1a585b1a5e995960921b6064820152fd5b50303b158015610b9f5750600160ff8a1614610b9f565b50600160ff8a1610610b98565b8980fd5b634e487b7160e01b8952604184528489fd5b8780fd5b600435906001600160a01b0382168203610ed857565b600080fd5b90601f8019910116810190811067ffffffffffffffff821117610eff57604052565b634e487b7160e01b600052604160045260246000fd5b6004359060ff82168203610ed857565b90600182811c92168015610f55575b6020831014610f3f57565b634e487b7160e01b600052602260045260246000fd5b91607f1691610f34565b6033546001600160a01b03163303610f7357565b606460405162461bcd60e51b815260206004820152602060248201527f4f776e61626c653a2063616c6c6572206973206e6f7420746865206f776e65726044820152fd5b603380546001600160a01b039283166001600160a01b0319821681179092559091167f8be0079c531659141344cd1fd0a4f28419497f9722a3daafe3b4186f6b6457e0600080a3565b9190820180921161100d57565b634e487b7160e01b600052601160045260246000fd5b8181029291811591840414171561100d57565b8115611040570490565b634e487b7160e01b600052601260045260246000fd5b9190820391821161100d57565b6110729060ff60a05416611dc5565b609d5490609f54907fdef563d050898b7d1669c8608895ce87133910200ea93fdbddadcd33a9be05996020603c6110ab609e5442611056565b049280609d55604051908152a1801561112d5742609e55621d02e58082029182040361100d576110e26110e891836110f1956111fd565b82611000565b80609f55611056565b6110fd81606b54611000565b606b557fb5f52c26162e22d72313152194e9c1757820c6ac28a61603445aec8b3561f70f6020604051838152a190565b505050600090565b600090606854806111cf575b5060018060a01b0316806000526069602052604060002054606a6020526b033b2e3c9fd0803ce800000061117d60406000205460665490611023565b04818111611192575b505050606b5460675590565b61119d929350611056565b9060005260a160205260406000206111b6828254611000565b90556111c481606b54611056565b606b55388080611186565b6111f4906111ee606654916111e9606b5460675490611056565b611f6c565b90611000565b60665538611141565b60648102908082046064149015171561100d576112286112236112339461122e93611023565b611236565b82611ffe565b611056565b90565b806112485750670de0b6b3a764000090565b90670de0b6b3a764000082146112fb576706f05b59d3b2000091670de0b6b3a76400006712dca2a104064000845b6112c45750611286929350611b86565b680a688906bd8affffff81116112ac57670de0b6b3a76400006112339160401b04611308565b6024906040519063b3b6ba1f60e01b82526004820152fd5b80670de0b6b3a764000091020493671bc16d674ec800008510156112ed575b60011c9384611276565b809491019060011c936112e3565b6725b94542080c80009150565b600160bf1b67ff000000000000008216611a5d575b670de0b6b3a76400009066ff000000000000831661194d575b65ff00000000008316611845575b64ff000000008316611745575b63ff000000831661164d575b62ff0000831661155d575b61ff008316611475575b60ff8316611387575b029060401c60bf031c90565b60808316611462575b604080841661144e575b6020841661143a575b60108416611426575b60088416611412575b600484166113fe575b600284166113ea575b600184166113d6575b5061137b565b906801000000000000000102901c386113d0565b906801000000000000000102811c906113c7565b906801000000000000000302811c906113be565b906801000000000000000602811c906113b5565b906801000000000000000b02811c906113ac565b906801000000000000001602811c906113a3565b906801000000000000002c02811c9061139a565b680100000000000000590260401c611390565b618000831661154a575b6140008316611537575b6120008316611524575b6110008316611511575b61080083166114fe575b61040083166114eb575b61020083166114d8575b61010083161561137257680100000000000000b10260401c611372565b680100000000000001630260401c6114bb565b680100000000000002c60260401c6114b1565b6801000000000000058c0260401c6114a7565b68010000000000000b170260401c61149d565b6801000000000000162e0260401c611493565b68010000000000002c5d0260401c611489565b680100000000000058b90260401c61147f565b62800000831661163a575b624000008316611627575b622000008316611614575b621000008316611601575b6208000083166115ee575b6204000083166115db575b6202000083166115c8575b62010000831615611368576801000000000000b1720260401c611368565b680100000000000162e40260401c6115aa565b6801000000000002c5c80260401c61159f565b68010000000000058b910260401c611594565b680100000000000b17210260401c611589565b68010000000000162e430260401c61157e565b680100000000002c5c860260401c611573565b6801000000000058b90c0260401c611568565b63800000008316611732575b6340000000831661171f575b6320000000831661170c575b631000000083166116f9575b630800000083166116e6575b630400000083166116d3575b630200000083166116c0575b630100000083161561135d5768010000000000b172180260401c61135d565b6801000000000162e4300260401c6116a1565b68010000000002c5c8600260401c611695565b680100000000058b90c00260401c611689565b6801000000000b17217f0260401c61167d565b680100000000162e42ff0260401c611671565b6801000000002c5c85fe0260401c611665565b68010000000058b90bfc0260401c611659565b6480000000008316611832575b644000000000831661181f575b642000000000831661180c575b64100000000083166117f9575b64080000000083166117e6575b64040000000083166117d3575b64020000000083166117c0575b64010000000083161561135157680100000000b17217f80260401c611351565b68010000000162e42ff10260401c6117a0565b680100000002c5c85fe30260401c611793565b6801000000058b90bfce0260401c611786565b68010000000b17217fbb0260401c611779565b6801000000162e42fff00260401c61176c565b68010000002c5c8601cc0260401c61175f565b680100000058b90c0b490260401c611752565b65800000000000831661193a575b654000000000008316611927575b652000000000008316611914575b651000000000008316611901575b6508000000000083166118ee575b6504000000000083166118db575b6502000000000083166118c8575b65010000000000831615611344576801000000b1721835510260401c611344565b680100000162e430e5a20260401c6118a7565b6801000002c5c863b73f0260401c611899565b68010000058b90cf1e6e0260401c61188b565b680100000b1721bcfc9a0260401c61187d565b68010000162e43f4f8310260401c61186f565b680100002c5c89d5ec6d0260401c611861565b6801000058b91b5bc9ae0260401c611853565b66800000000000008316611a4a575b66400000000000008316611a37575b66200000000000008316611a24575b66100000000000008316611a11575b660800000000000083166119fe575b660400000000000083166119eb575b660200000000000083166119d8575b66010000000000008316156113365768010000b17255775c040260401c611336565b6801000162e525ee05470260401c6119b6565b68010002c5cc37da94920260401c6119a7565b680100058ba01fb9f96d0260401c611998565b6801000b175effdc76ba0260401c611989565b680100162f3904051fa10260401c61197a565b6801002c605e2e8cec500260401c61196b565b68010058c86da1c09ea20260401c61195c565b6780000000000000008216611b73575b670de0b6b3a7640000906740000000000000008316611b60575b6720000000000000008316611b4d575b6710000000000000008316611b3a575b6708000000000000008316611b27575b6704000000000000008316611b14575b6702000000000000008316611b01575b6701000000000000008316611aee575b905061131d565b680100b1afa5abcbed610260401c611ae7565b68010163da9fb33356d80260401c611ad7565b680102c9a3e778060ee70260401c611ac7565b6801059b0d31585743ae0260401c611ab7565b68010b5586cf9890f62a0260401c611aa7565b6801172b83c7d517adce0260401c611a97565b6801306fe0a31b7152df0260401c611a87565b5068016a09e667f3bcc909607f1b611a6d565b90919060001983820983820291828083109203918083039214611c0b57670de0b6b3a76400009081831015611bed57947faccb18165bd6fe31ae1cf318dc5b51eee0e1ba569b88cd74c1773b91fac1066994950990828211900360ee1b910360121c170290565b6044908660405191635173648d60e01b835260048301526024820152fd5b5050670de0b6b3a764000090049150565b6068548015611dbe57603c611c33609e5442611056565b0460009080158015611d6d575b5050906111ee611c61611c58611c6b94606b54611000565b60675490611056565b9160665492611f6c565b604051630575db4960e31b81526001600160a01b03909216600483018190526020908184602481305afa938415611d3257600094611d3e575b5060405190636f34d9d560e11b825260048201528181602481305afa918215611d3257600092611d01575b50506b033b2e3c9fd0803ce800000091611ce891611023565b0490808211611cf8575050600090565b61123391611056565b81819392933d8311611d2b575b611d188183610edd565b8101031261031a57505181611ce8611ccf565b503d611d0e565b6040513d6000823e3d90fd5b90938282813d8311611d66575b611d558183610edd565b8101031261031a5750519238611ca4565b503d611d4b565b9091609d5490609f5492621d02e5808602958604141715611daa5750611c58611da1611c6b95946111ee94611c61946111fd565b93945050611c40565b634e487b7160e01b81526011600452602490fd5b5050600090565b90670d2f13f7789f00009081811015611ec75750905b670de0b6b3a763ffff19820191821360011661100d5761289c199182810292818405149015171561100d5760ff1680611eaa57506064611388915b05680736ea4425c11ac6308113611e9257670de0b6b3a76400006714057b7ef767814f611e44920205611ee9565b60008112611e7a5768056bc75e2d6310000090611e61818461207f565b9209611e6a5790565b600019811015610ed85760010190565b60249060405190632463f3d560e01b82526004820152fd5b6024906040519063ca7ec0c560e01b82526004820152fd5b600103611ebc576064611d4c91611e16565b60646130d491611e16565b919050670e92596fd6290000808311611ee1575b50611ddb565b915038611edb565b6000811215611f2f5768033dd1780914b97114198112611f2957611f0f90600003611ee9565b8015611040576ec097ce7bc90715b34b9f10000000000590565b50600090565b680a688906bd8affffff8113611f5557670de0b6b3a76400006112339160401b05611308565b60249060405190626c1a0560e31b82526004820152fd5b906b033b2e3c9fd0803ce8000000906000198284099282810292838086109503948086039514611ff05784831115610ed8578291098160018119011680920460028082600302188083028203028083028203028083028203028083028203028083028203028092029003029360018380600003040190848311900302920304170290565b505080925015610ed8570490565b9091906000198382098382029182808310920394828603926000961461206c57670de0b6b3a76400009183831115612068577faccb18165bd6fe31ae1cf318dc5b51eee0e1ba569b88cd74c1773b91fac106699596500990828211900360ee1b910360121c170290565b8680fd5b505050670de0b6b3a76400009192500490565b909190600019838209838202918280831092039482860392600096146120ea5768056bc75e2d631000009183831115612068577f2fdf29ec6a12d6f7bf48d6861d4b553283e011b18b576460d489e3a9addec2d19596500990828211900360ec1b910360141c170290565b50505068056bc75e2d631000009192500490565b1561210557565b60405162461bcd60e51b815260206004820152602b60248201527f496e697469616c697a61626c653a20636f6e7472616374206973206e6f74206960448201526a6e697469616c697a696e6760a81b6064820152608490fd5b606854806121735750670de0b6b3a764000090565b80611233915b90670de0b6b3a76400009182810292818404149015171561100d5761123391611036565b9080612202575b6020907f858d2e17a8121c939a8c52f6821c748d2592cc8ecd8e6afcda3fc4c84248002f9260018060a01b031680600052606a83526121eb6040600020546066549061227c565b9060005260698352604060002055604051908152a1565b61221361220d61215e565b82612179565b906000821315610ed8577f858d2e17a8121c939a8c52f6821c748d2592cc8ecd8e6afcda3fc4c84248002f928261224e602094606854611000565b60685560018060a01b038216600052606a84526122716040600020918254611000565b9055925090506121a4565b9061228691611023565b6b033b2e3c9fd0803ce7ffffff810180911161100d576b033b2e3c9fd0803ce8000000900490565b9080158015612300575b506020907fb20101a10c7cc8d4a9b5accf3d34c34f89d53ec195fce51620af16429526c7559260018060a01b031680600052606a83526121eb6040600020546066549061227c565b61230861215e565b670de0b6b3a7640000918284029284840414171561100d5760001981019181831161100d5761233f9261233a91611000565b611036565b906000821315610ed8577fb20101a10c7cc8d4a9b5accf3d34c34f89d53ec195fce51620af16429526c755928261237a602094606854611056565b60685560018060a01b038216600052606a845261239d6040600020918254611056565b90559250906122b856fea2646970667358221220eed2f588e7d1f803c4d0c63bb141b4406b128735bdcd68f5ff512bfc308c191864736f6c63430008130033",
  "linkReferences": {},
  "deployedLinkReferences": {}
}