{
  "_format": "hh-sol-artifact-1",
  "contractName": "AgilelyInterestManager",
  "sourceName": "src/main/AgilelyInterestManager.sol",
  "abi": [
    {
      "inputs": [],
      "name": "ErrorModuleAlreadySet",
      "type": "error"
    },
    {
      "inputs": [],
      "name": "ModuleNotActive",
      "type": "error"
    },
    {
      "inputs": [],
      "name": "NotTroveManager",
      "type": "error"
    },
    {
      "anonymous": false,
      "inputs": [
        {
          "indexed": true,
          "internalType": "address",
          "name": "token",
          "type": "address"
        },
        {
          "indexed": true,
          "internalType": "address",
          "name": "user",
          "type": "address"
        },
        {
          "indexed": false,
          "internalType": "uint256",
          "name": "newDebt",
          "type": "uint256"
        }
      ],
      "name": "DebtChanged",
      "type": "event"
    },
    {
      "anonymous": false,
      "inputs": [
        {
          "indexed": false,
          "internalType": "uint8",
          "name": "version",
          "type": "uint8"
        }
      ],
      "name": "Initialized",
      "type": "event"
    },
    {
      "anonymous": false,
      "inputs": [
        {
          "indexed": true,
          "internalType": "address",
          "name": "module",
          "type": "address"
        },
        {
          "indexed": false,
          "internalType": "uint256",
          "name": "interestMinted",
          "type": "uint256"
        }
      ],
      "name": "InterestMinted",
      "type": "event"
    },
    {
      "anonymous": false,
      "inputs": [
        {
          "indexed": true,
          "internalType": "address",
          "name": "token",
          "type": "address"
        },
        {
          "indexed": true,
          "internalType": "address",
          "name": "module",
          "type": "address"
        }
      ],
      "name": "ModuleLinked",
      "type": "event"
    },
    {
      "anonymous": false,
      "inputs": [
        {
          "indexed": true,
          "internalType": "address",
          "name": "previousOwner",
          "type": "address"
        },
        {
          "indexed": true,
          "internalType": "address",
          "name": "newOwner",
          "type": "address"
        }
      ],
      "name": "OwnershipTransferred",
      "type": "event"
    },
    {
      "inputs": [
        {
          "internalType": "address",
          "name": "_token",
          "type": "address"
        },
        {
          "internalType": "address",
          "name": "_user",
          "type": "address"
        },
        {
          "internalType": "uint256",
          "name": "_debt",
          "type": "uint256"
        }
      ],
      "name": "decreaseDebt",
      "outputs": [
        {
          "internalType": "uint256",
          "name": "interestAdded_",
          "type": "uint256"
        }
      ],
      "stateMutability": "nonpayable",
      "type": "function"
    },
    {
      "inputs": [
        {
          "internalType": "address",
          "name": "_token",
          "type": "address"
        },
        {
          "internalType": "address",
          "name": "_user",
          "type": "address"
        }
      ],
      "name": "exit",
      "outputs": [
        {
          "internalType": "uint256",
          "name": "interestAdded_",
          "type": "uint256"
        }
      ],
      "stateMutability": "nonpayable",
      "type": "function"
    },
    {
      "inputs": [
        {
          "internalType": "address",
          "name": "_token",
          "type": "address"
        }
      ],
      "name": "getInterestModule",
      "outputs": [
        {
          "internalType": "address",
          "name": "",
          "type": "address"
        }
      ],
      "stateMutability": "view",
      "type": "function"
    },
    {
      "inputs": [],
      "name": "getLastUSDAPrice",
      "outputs": [
        {
          "internalType": "uint256",
          "name": "",
          "type": "uint256"
        }
      ],
      "stateMutability": "view",
      "type": "function"
    },
    {
      "inputs": [],
      "name": "getModules",
      "outputs": [
        {
          "internalType": "address[]",
          "name": "",
          "type": "address[]"
        }
      ],
      "stateMutability": "view",
      "type": "function"
    },
    {
      "inputs": [
        {
          "internalType": "address",
          "name": "_token",
          "type": "address"
        },
        {
          "internalType": "address",
          "name": "_user",
          "type": "address"
        }
      ],
      "name": "getUserDebt",
      "outputs": [
        {
          "internalType": "uint256",
          "name": "currentDebt_",
          "type": "uint256"
        },
        {
          "internalType": "uint256",
          "name": "pendingInterest_",
          "type": "uint256"
        }
      ],
      "stateMutability": "view",
      "type": "function"
    },
    {
      "inputs": [
        {
          "internalType": "address",
          "name": "_token",
          "type": "address"
        },
        {
          "internalType": "address",
          "name": "_user",
          "type": "address"
        },
        {
          "internalType": "uint256",
          "name": "_debt",
          "type": "uint256"
        }
      ],
      "name": "increaseDebt",
      "outputs": [
        {
          "internalType": "uint256",
          "name": "interestAdded_",
          "type": "uint256"
        }
      ],
      "stateMutability": "nonpayable",
      "type": "function"
    },
    {
      "inputs": [],
      "name": "oracle",
      "outputs": [
        {
          "internalType": "contract IPriceFeed",
          "name": "",
          "type": "address"
        }
      ],
      "stateMutability": "view",
      "type": "function"
    },
    {
      "inputs": [],
      "name": "owner",
      "outputs": [
        {
          "internalType": "address",
          "name": "",
          "type": "address"
        }
      ],
      "stateMutability": "view",
      "type": "function"
    },
    {
      "inputs": [],
      "name": "renounceOwnership",
      "outputs": [],
      "stateMutability": "nonpayable",
      "type": "function"
    },
    {
      "inputs": [],
      "name": "safetyVault",
      "outputs": [
        {
          "internalType": "address",
          "name": "",
          "type": "address"
        }
      ],
      "stateMutability": "view",
      "type": "function"
    },
    {
      "inputs": [
        {
          "internalType": "address",
          "name": "_token",
          "type": "address"
        },
        {
          "internalType": "address",
          "name": "_module",
          "type": "address"
        }
      ],
      "name": "setModuleFor",
      "outputs": [],
      "stateMutability": "nonpayable",
      "type": "function"
    },
    {
      "inputs": [
        {
          "internalType": "address",
          "name": "_newSafetyVault",
          "type": "address"
        }
      ],
      "name": "setSafetyVault",
      "outputs": [],
      "stateMutability": "nonpayable",
      "type": "function"
    },
    {
      "inputs": [
        {
          "internalType": "address",
          "name": "_usda",
          "type": "address"
        },
        {
          "internalType": "address",
          "name": "_troveManager",
          "type": "address"
        },
        {
          "internalType": "address",
          "name": "_priceFeed",
          "type": "address"
        },
        {
          "internalType": "address",
          "name": "_usdaOperator",
          "type": "address"
        },
        {
          "internalType": "address",
          "name": "_safetyVault",
          "type": "address"
        }
      ],
      "name": "setUp",
      "outputs": [],
      "stateMutability": "nonpayable",
      "type": "function"
    },
    {
      "inputs": [
        {
          "internalType": "address[]",
          "name": "_assets",
          "type": "address[]"
        }
      ],
      "name": "syncWithProtocol",
      "outputs": [],
      "stateMutability": "nonpayable",
      "type": "function"
    },
    {
      "inputs": [
        {
          "internalType": "address",
          "name": "newOwner",
          "type": "address"
        }
      ],
      "name": "transferOwnership",
      "outputs": [],
      "stateMutability": "nonpayable",
      "type": "function"
    },
    {
      "inputs": [],
      "name": "troveManager",
      "outputs": [
        {
          "internalType": "address",
          "name": "",
          "type": "address"
        }
      ],
      "stateMutability": "view",
      "type": "function"
    },
    {
      "inputs": [],
      "name": "updateModules",
      "outputs": [],
      "stateMutability": "nonpayable",
      "type": "function"
    },
    {
      "inputs": [],
      "name": "usda",
      "outputs": [
        {
          "internalType": "address",
          "name": "",
          "type": "address"
        }
      ],
      "stateMutability": "view",
      "type": "function"
    },
    {
      "inputs": [],
      "name": "usdaOperator",
      "outputs": [
        {
          "internalType": "contract IUSDAOperator",
          "name": "",
          "type": "address"
        }
      ],
      "stateMutability": "view",
      "type": "function"
    }
  ],
  "bytecode": "0x60808060405234610016576112d5908161001c8239f35b600080fdfe6040608081526004908136101561001557600080fd5b600091823560e01c8063179ba5b114610a3d57806339945e33146108f95780633d83908a146108d057806353b087f0146108a75780635bccabb01461086c5780636de2449214610835578063715018a6146107d85780637dc0d1d0146107af5780638261f5331461076a5780638da5cb5b146107415780639ee97a2014610728578063a2a00ed6146105f1578063a625403a1461059e578063b2494df3146104d9578063bafa1405146104ba578063e2b19ff014610491578063ed60f18814610442578063ee9e819914610415578063f2fde38b146103845763ff432205146100fd57600080fd5b346103805760a036600319011261038057610116610b98565b61011e610bb3565b6001600160a01b0360443581811694929085900361037c576064359082821680920361037857608435918383168093036102d45788549560ff8760081c16159687809861036b575b8015610354575b156102fa5760ff1981166001178b55859190886102e9575b5061019f60ff8c5460081c1661019a81610ceb565b610ceb565b6101a833610c56565b16936bffffffffffffffffffffffff60a01b92858460665416176066551682606754161760675586826069541617606955875196879462736d0b60e31b8652868601528460246020998a935afa9384156102df5789946102ac575b508360655581606a541617606a5560685416176068551561025e5750610227578280f35b7f7f26b83ff96e1f2b6a682f133852f6798a09c465da95921460cefb38474024989161ff001984541684555160018152a138808280f35b835162461bcd60e51b8152908101839052602260248201527f4f7261636c65204661696c656420746f20666574636820555344412070726963604482015261329760f11b6064820152608490fd5b9093508681813d83116102d8575b6102c48183610cc9565b810103126102d457519238610203565b8880fd5b503d6102ba565b88513d8b823e3d90fd5b61ffff1916610101178b5538610185565b895162461bcd60e51b8152602081890152602e60248201527f496e697469616c697a61626c653a20636f6e747261637420697320616c72656160448201526d191e481a5b9a5d1a585b1a5e995960921b6064820152608490fd5b50303b15801561016d5750600160ff82161461016d565b50600160ff821610610166565b8780fd5b8680fd5b8280fd5b50346103805760203660031901126103805761039e610b98565b916103a7610bfe565b6001600160a01b038316156103c357836103c084610c56565b80f35b906020608492519162461bcd60e51b8352820152602660248201527f4f776e61626c653a206e6577206f776e657220697320746865207a65726f206160448201526564647265737360d01b6064820152fd5b50503461043e578160031936011261043e5760685490516001600160a01b039091168152602090f35b5080fd5b50913461048e575061045336610bc9565b6067549094919291906001600160a01b0316330361048057509261047991602094610edc565b9051908152f35b8351636003da5960e01b8152fd5b80fd5b50503461043e578160031936011261043e5760665490516001600160a01b039091168152602090f35b50503461043e578160031936011261043e576020906065549051908152f35b82843461048e578060031936011261048e57908051918290606b549182855260208095018093606b84527fbd43cb8ece8cd1863bcd6082d65c5b0d25665b1ce17980f0da43c0ed545f98b490845b818110610581575050508161053d910382610cc9565b83519485948186019282875251809352850193925b82811061056157505050500390f35b83516001600160a01b031685528695509381019392810192600101610552565b82546001600160a01b031684529288019260019283019201610527565b50913461048e578160031936011261048e57506105b9610b98565b6105c1610bb3565b6067549093906001600160a01b031633036105e3575060209261047991610f3a565b8251636003da5960e01b8152fd5b5082903461043e578260031936011261043e5761060c610b98565b610614610bb3565b9060018060a01b038091168452602092606c8452818686205416918215600014610649575050505081905b8351928352820152f35b865163052a9bb160e51b81529316818401819052908484602481865afa93841561071e579085929187956106e6575b506024908851948593849263de364b0760e01b84528301525afa9384156106db5780946106a9575b5050919061063f565b909193508282813d83116106d4575b6106c28183610cc9565b8101031261048e5750519184806106a0565b503d6106b8565b8551903d90823e3d90fd5b838193949296503d8311610717575b6106ff8183610cc9565b810103126107135751928491906024610678565b8580fd5b503d6106f5565b87513d88823e3d90fd5b833461048e578060031936011261048e576103c061102a565b50503461043e578160031936011261043e5760335490516001600160a01b039091168152602090f35b833461048e57602036600319011261048e57610784610b98565b61078c610bfe565b60018060a01b03166bffffffffffffffffffffffff60a01b606854161760685580f35b50503461043e578160031936011261043e5760695490516001600160a01b039091168152602090f35b833461048e578060031936011261048e576107f1610bfe565b603380546001600160a01b0319811690915581906001600160a01b03167f8be0079c531659141344cd1fd0a4f28419497f9722a3daafe3b4186f6b6457e08280a380f35b50913461048e575061084636610bc9565b6067549094919291906001600160a01b0316330361048057509261047991602094610d98565b50503461043e57602036600319011261043e576020916001600160a01b0390829082610896610b98565b168152606c85522054169051908152f35b50503461043e578160031936011261043e57606a5490516001600160a01b039091168152602090f35b50503461043e578160031936011261043e5760675490516001600160a01b039091168152602090f35b509034610380578060031936011261038057610913610b98565b61091b610bb3565b92610924610bfe565b60018060a01b0380921692838652602092606c8452808288205416610a2f57848752606c845281872080546001600160a01b0319169682169687179055606b5468010000000000000000811015610a1c578060016109859201606b55610d4b565b819291549060031b9188831b921b19161790556065548151926305d79b4560e31b8452830152828260248189895af1908115610a1357506109ea575b50507f26502afab58534a89f6d728ca1f766d0e74401cc1c78a26a96572856047eca898380a380f35b813d8311610a0c575b6109fd8183610cc9565b810103126103805738806109c1565b503d6109f3565b513d87823e3d90fd5b634e487b7160e01b885260418452602488fd5b505163a8a769db60e01b8152fd5b50346103805760209182600319360112610b94578382359367ffffffffffffffff948581116103805736602382011215610380578085013595861161038057602490600590368389841b83010111610b9057610a97610bfe565b610a9f61102a565b845b888110610aac578580f35b6001600160a01b0381841b83018501358181169081900361037857808852606c875286828a8a205416926067541691878c8c5194859384926327d04b3560e01b84528301525afa908115610b86578891610b59575b50813b15610378578790868b838c519586948593634002511160e01b85528401525af18015610b4f5790610b3b9291610b40575b50611005565b610aa1565b610b4990610c9f565b38610b35565b88513d89823e3d90fd5b90508681813d8311610b7f575b610b708183610cc9565b81010312610378575138610b01565b503d610b66565b89513d8a823e3d90fd5b8480fd5b8380fd5b600435906001600160a01b0382168203610bae57565b600080fd5b602435906001600160a01b0382168203610bae57565b6060906003190112610bae576001600160a01b03906004358281168103610bae57916024359081168103610bae579060443590565b6033546001600160a01b03163303610c1257565b606460405162461bcd60e51b815260206004820152602060248201527f4f776e61626c653a2063616c6c6572206973206e6f7420746865206f776e65726044820152fd5b603380546001600160a01b039283166001600160a01b0319821681179092559091167f8be0079c531659141344cd1fd0a4f28419497f9722a3daafe3b4186f6b6457e0600080a3565b67ffffffffffffffff8111610cb357604052565b634e487b7160e01b600052604160045260246000fd5b90601f8019910116810190811067ffffffffffffffff821117610cb357604052565b15610cf257565b60405162461bcd60e51b815260206004820152602b60248201527f496e697469616c697a61626c653a20636f6e7472616374206973206e6f74206960448201526a6e697469616c697a696e6760a81b6064820152608490fd5b606b54811015610d8257606b6000527fbd43cb8ece8cd1863bcd6082d65c5b0d25665b1ce17980f0da43c0ed545f98b40190600090565b634e487b7160e01b600052603260045260246000fd5b610da061102a565b60018060a01b0380911690600090828252602090606c82526040818185205416958615610ed157815163f8585db360e01b81526001600160a01b03821660048201526024810198909852838880604481015b0381888b5af1978815610ec7578598610e98575b508390602483518095819363052a9bb160e51b835216998a60048301525afa918215610e8e578492610e4d575b50600080516020611280833981519152935051908152a390565b915091928382813d8311610e87575b610e668183610cc9565b8101031261048e575051600080516020611280833981519152929138610e33565b503d610e5c565b81513d86823e3d90fd5b9097508381813d8311610ec0575b610eb08183610cc9565b81010312610b9057519683610e06565b503d610ea6565b82513d87823e3d90fd5b505050509250505090565b610ee461102a565b60018060a01b0380911690600090828252602090606c82526040818185205416958615610ed1578151632fb9ba3160e01b81526001600160a01b0382166004820152602481019890985283888060448101610df2565b610f4261102a565b60018060a01b0380911660009281845283602091606c835284604083205416948515610ffc5760248492604051988993849263b42652e960e01b845216988960048401525af1948515610fef578195610fb2575b509060008051602061128083398151915291604051908152a390565b9094508181813d8311610fe8575b610fca8183610cc9565b81010312610b90575193600080516020611280833981519152610f96565b503d610fc0565b50604051903d90823e3d90fd5b50505050505090565b60001981146110145760010190565b634e487b7160e01b600052601160045260246000fd5b60695460665460408051635670bcc760e11b81526001600160a01b03928316600480830191909152600094909360249160209081908590859082908b9087165af1938415611161578794611250575b506065938455606b548794885b82811061116b57505050508261109f575b505050505050565b80606a54168160685416813b156103785785516340c10f1960e01b81526001600160a01b03909116818801908152602081018690529091889183919082908490829060400103925af180156111615761114e575b506068541693843b15610713579085929183855196879485936303373ff360e61b85528401525af19081156111455750611131575b80808080611097565b61113b8291610c9f565b61048e5780611128565b513d84823e3d90fd5b61115a90969196610c9f565b94386110f3565b85513d89823e3d90fd5b898561117683610d4b565b90549060031b1c16858454898d8d5195869384926305d79b4560e31b8452830152855af1918215611246578c92611213575b50816111bf575b50506111ba90611005565b611086565b909788810180911161120157907f2ee35aad2e33f2a57a13f55b273b9ab5bf3cdd683fe413a7d9e22bcb8b3f67dd866111ba94939a8c51908152a290386111af565b634e487b7160e01b8c5260118b52878cfd5b9091508581813d831161123f575b61122b8183610cc9565b8101031261123b575190386111a8565b8b80fd5b503d611221565b8a513d8e823e3d90fd5b9080945081813d8311611278575b6112688183610cc9565b8101031261037c57519238611079565b503d61125e56febcc98ff4e0ebfe6a94a66cdfea3cd8b0ddbc45a7cc4254a0c0f62a3dba65fe1aa264697066735822122034e2c6a7019eae7eb1f4a998f18b41cf36a28e39cfb535950508cb882e46488a64736f6c63430008130033",
  "linkReferences": {},
  "deployedLinkReferences": {}
}